:020000002028B6
:100008007E1480314E01161C0A280B2813280C1C5C
:100018000E280F2813288131F22180311E28161E40
:10002800162817281E280C1E1A281B281E2881315E
:10003800A22180317E10090021287E104001AA28C3
:10004800F6007608031D29282A28512881311D2108
:10005800803140011811003240011815000040019C
:100068001811003240011815000040011811003223
:100078004001181500004001181100324001181500
:10008800000040011811000040011815003240011D
:100098001811000040011815A9287603031D5528DA
:1000A80056287D2881311D218031400118110032E8
:1000B80040011815000040011811000040011815F2
:1000C80000324001181100004001181500324001AB
:1000D80018110000400118150032400118110000E5
:1000E8004001181500324001181100004001181590
:1000F800A92802307606031D82288328A928813181
:100108001D218031400118110000400118150032EE
:100118004001181100004001181500324001181163
:10012800000040011815003240011811000040017C
:10013800181500324001181100004001181500324E
:100148004001181100004001181508008131E8210C
:1001580080318B170B17FB010130F9000130FA00D1
:100168006300000040018C1EBA28BB28E62818113D
:100178006230F8006630890BBF28F80BBF284001B1
:100188008C1AC728C828EA287B08031DCC28CD2844
:10019800D0280130F900DF287B03031DD428D52897
:1001A800D8280230F900DF2802307B06031DDD283D
:1001B800DE28DF28F9017908FB007B08803124203C
:1001C8008031EA287B0880312420803140010C1ED0
:1001D800EE28EF28F5287A08031DF328F428B42818
:1001E800B2287A03031DF928FA28B428FA018C1ECC
:1001F800FE28FF280E297B08803124208031A33077
:10020800F8005530890B0629F80B06290000400133
:100218001811B4281811A330F8005530890B122989
:10022800F80B122900007B08803124208031B42883
:10023800202840011811AF300032890B20294001D5
:1002480018150830890B262900004001181125309F
:10025800890B2C29000040011815000040011811D5
:10026800003240011815000040011811000040013B
:10027800181500324001181100324001181500000D
:1002880040011811000040011815003240011811F2
:1002980000004001181500324001181100324001D9
:1002A800181500004001181100324001181500000F
:1002B80040011811003240011815000040011811C2
:1002C80000004001181500004001181100324001DB
:1002D80018150000400118110032400118150000DF
:1002E80040011811003240011815000008004001B3
:1002F80098013B30920003307E01B800B901BA0181
:100308003730BB003F30BC0005307D0190003030F5
:100318007E01BD003030BE00BF010D30F600023056
:10032800F7008131FD2181310C30F6000230F700F1
:100338008131F82181314E01161608007E013F1ED9
:10034800A629A729AA298131C12181317E01BF1E91
:10035800AE29AF29B2298131B32181310800700853
:1003680071040319B829B929BE2971088A007008CF
:100378000A0081317E01BF12080072087304031954
:10038800C629C729CC2973088A0072080A00813156
:100398007E013F1208004E010C100B140E30F600BF
:1003A8000230F7008231022281314E011614080012
:1003B800740875040319E129E229E72975088A00F8
:1003C80074080A00813108008231072281318131A5
:1003D8007B2181318131CF21813108004E010C1000
:1003E8008131DC21813108007708F1007608F000BE
:1003F80008007708F3007608F20008007708F5008F
:100408007608F40008005101910193019201080057
:06041800080008000800C6
:020000040001F9
:04000E00ED3FE73F9C
:04001400FF3FFF3F6C
:00000001FF
