:020000002428B2
:100008007E14803100308600003087004E01161CB7
:100018000E280F2817280C1C12281328172882319D
:100028005F2280312228161E1A281B2822280C1E1F
:100038001E281F2822288131F42180317E100900D2
:1000480025287E104001282882313D2280318B17D7
:100058000B170130FC000130FA000130FB0063008F
:10006800000040018C1E39283A287B2818110D30D1
:10007800F7002D30F600D830890B4028F60B4028C1
:10008800F70B402875281F307C02031C4C284D288C
:100098004F28FB0156287C08031D5328542856284E
:1000A8000130FB007B08031D5A285B285E280130BD
:1000B800FC0265287B03031D62286328652801303C
:1000C800FC077C0881315D2180310530F7000F3055
:1000D800F600F130890B6E28F60B6E28F70B6E28A8
:1000E800000040018C1E79287A2847289B28013077
:1000F800F8000030F9009028780881315D218031BE
:100108006830F600E430890B8728F60B8728003220
:100118000130F8070030F93D7908803A803C031D2A
:10012800972878087C0203189A289B288028400181
:100138000C1E9F28A028A8287A08031DA428A528F3
:1001480033280130FA0033287A03031DAC28AD2880
:100158003328FA018C1EB128B228C5287C088131C1
:100168005D2180311530F7004B30F600BE30890B29
:10017800BB28F60BBB28F70BBB280032400118112F
:10018800332818111530F7004B30F600BE30890BB4
:10019800CB28F60BCB28F70BCB2800327C08813113
:1001A8005D21803133282428400118112530F000C2
:1001B8005C30890BDD28F00BDD2840011815A030D4
:1001C8000032890BE428400118110530F000AC30EA
:1001D800890BEC28F00BEC28400118150A30890B24
:1001E800F3280032400118111530890BF928000056
:1001F800400118150A30890BFF28003240011811F8
:100208000A30890B05290032400118151530890B71
:100218000B290000400118111530890B1129000025
:10022800400118150A30890B1729003240011811AE
:100238000A30890B1D290032400118151530890B29
:1002480023290000400118110A30890B292900329E
:10025800400118151530890B2F290000400118118D
:100268001530890B35290000400118150A30890B13
:100278003B290032400118111530890B4129000033
:10028800400118150A30890B47290032400118111E
:100298001530890B4D290000400118150A30890BCB
:1002A80053290032400118110A30890B59290032AC
:1002B8000800F3008031D8208131400118150A3038
:1002C800890B64290032400118113530890B6A29DD
:1002D8000000400118150A30890B702900324001CE
:1002E80018113530890B76290000400118150A309D
:1002F800890B7C290032400118113530890B82297D
:100308000000400118150A30890B88290032043092
:10031800F4000030F5000130F100740A9429F13539
:10032800890B932971087305F200740A9C29F23627
:10033800890B9B297208031DA229A329B029400112
:1003480018113530890BA6290000400118150A300C
:10035800890BAC290032BC29400118110A30890BDD
:10036800B3290032400118153530890BB92900002E
:10037800FF30F407FF30F53DF51FC329C4298F2945
:10038800400118110A30890BC7290032400118159D
:100398000800400198013B30920003307E01B8000C
:1003A800B901BA013730BB003F30BC0005307D01D0
:1003B800900030307E01BD003030BE00BF01663095
:1003C800F0000230F10082314D2281316530F000B9
:1003D8000230F1008231472281314E0116160800A1
:1003E8007E013F1EF829F929FC2982311422813126
:1003F8007E01BF1E002A012A042A8231052281318A
:10040800080040012008210403190B2A0C2A112A8C
:1004180021088A0020080A0082317E01BF120800E4
:1004280040012208230403191A2A1B2A202A230818
:100438008A0022080A0082317E013F1208004E011C
:100448000C100B146730F0000230F1008231532297
:1004580082314E01161408004001240825040319AE
:10046800362A372A3C2A25088A0024080A008231BD
:1004780008008231592282318131CD218231823185
:1004880023228231080071084001A1007008A000F1
:10049800080071084001A3007008A2000800710854
:1004A8004001A5007008A400080051019101053021
:1004B8009300920108004E010C10823130228231E3
:0804C80008000800080008000C
:020000040001F9
:04000E00CD3FE73FBC
:04001400FF3FFF3F6C
:00000001FF
