:020000002428B2
:100008007E14803100308600003087004E01161CB7
:100018000E280F2817280C1C12281328172882319D
:10002800682280312228161E1A281B2822280C1E16
:100038001E281F2822288231122280317E100900B2
:1000480025287E10400128288231582280318B17BC
:100058000B1701304001A6000130A0000130A500B7
:100068006300000040018C1E3A283B28962818118E
:100078000D30F7002D30F600D830890B4128F60BEB
:100088004128F70B412840018C1A4B284C28B828E6
:100098001F302606031D5128522855280130A0007C
:1000A800652810302606031D5A285B285E281F3055
:1000B800A00065282603031D6228632865281030E0
:1000C800A0002008A6000130A1000030A2007E2870
:1000D8004001210881317B2180316830F600E4300D
:1000E800890B7428F60B7428003201304001A107EF
:1000F8000030A23D2208803A803C031D8528210853
:1001080026020318882889286C280330F70008304D
:10011800F6007730890B8E28F60B8E28F70B8E2881
:100128000000B8280130A3000030A400AD28400129
:10013800230881317B2180316830F600E430890B57
:10014800A328F60BA328003201304001A307003092
:10015800A43D2408803A803C031DB42823082602C5
:100168000318B728B8289B2840010C1EBC28BD28B6
:10017800C5282508031DC128C22834280130A50038
:1001880034282503031DC928CA283428A5018C1E34
:10019800CE28CF28E228260881317B2180311530EE
:1001A800F7004B30F600BE30890BD828F60BD8285C
:1001B800F70BD828003240011811342818111530CF
:1001C800F7004B30F600BE30890BE828F60BE8281C
:1001D800F70BE82800324001260881317B21803165
:1001E80034282428400118112530F0005C30890B90
:1001F800FB28F00BFB2840011815A0300032890BB2
:100208000229400118110530F000AC30890B0A2989
:10021800F00B0A29400118150A30890B1129003200
:10022800400118111530890B1729000040011815D5
:100238000A30890B1D290032400118110A30890B38
:1002480023290032400118151530890B292900008F
:10025800400118111530890B2F290000400118158D
:100268000A30890B35290032400118110A30890BF0
:100278003B290032400118151530890B412900002F
:10028800400118110A30890B47290032400118151E
:100298001530890B4D290000400118111530890BC4
:1002A80053290000400118150A30890B59290032DA
:1002B800400118111530890B5F29000040011815FD
:1002C8000A30890B65290032400118111530890B55
:1002D8006B290000400118150A30890B712900327A
:1002E800400118110A30890B772900320800F30001
:1002F8008031F6208131400118150A30890B822996
:100308000032400118113530890B8829000040015E
:1003180018150A30890B8E29003240011811353022
:10032800890B94290000400118150A30890B9A2975
:100338000032400118113530890BA0290000400116
:1003480018150A30890BA62900320430F400003051
:10035800F5000130F100740AB229F135890BB12991
:1003680071087305F200740ABA29F236890BB929A3
:100378007208031DC029C129CE2940011811353042
:10038800890BC4290000400118150A30890BCA29B5
:100398000032DA29400118110A30890BD1290032BC
:1003A800400118153530890BD7290000FF30F407B4
:1003B800FF30F53DF51FE129E229AD29400118116B
:1003C8000A30890BE5290032400118150800400160
:1003D80098013B30920003307E01B800B901BA01A0
:1003E8003730BB003F30BC0005307D019000303015
:1003F8007E01BD003030BE00BF017E30F00002300B
:10040800F1008231732281317D30F0000230F10039
:1004180082316E2281314E01161608007E013F1E80
:10042800162A172A1A2A8231312282317E01BF1EEA
:100438001E2A1F2A222A82312322823108007808A4
:1004480079040319282A292A2E2A79088A00780883
:100458000A0082317E01BF1208007A087B04031962
:10046800362A372A3C2A7B088A007A080A00823111
:100478007E013F1208004E010C100B147F30F00073
:100488000230F1008231782282314E0116140800C0
:100498007C087D040319512A522A572A7D088A00AC
:1004A8007C080A008231080082316222823181315F
:1004B800EB21823182313F228231080051019101C2
:1004C80005309300920108004E010C1082314C2235
:1004D800823108007108F9007008F80008007108F6
:1004E800FB007008FA0008007108FD007008FC00A5
:0804F8000800080008000800DC
:020000040001F9
:04000E00CD3FE73FBC
:04001400FF3FFF3F6C
:00000001FF
